{
  "contractName": "storeData",
  "abi": [
    {
      "constant": true,
      "inputs": [],
      "name": "db_hash_part1",
      "outputs": [
        {
          "internalType": "bytes32",
          "name": "",
          "type": "bytes32"
        }
      ],
      "payable": false,
      "stateMutability": "view",
      "type": "function"
    },
    {
      "constant": true,
      "inputs": [],
      "name": "db_hash_part2",
      "outputs": [
        {
          "internalType": "bytes32",
          "name": "",
          "type": "bytes32"
        }
      ],
      "payable": false,
      "stateMutability": "view",
      "type": "function"
    },
    {
      "constant": true,
      "inputs": [],
      "name": "dev_hash_part1",
      "outputs": [
        {
          "internalType": "bytes32",
          "name": "",
          "type": "bytes32"
        }
      ],
      "payable": false,
      "stateMutability": "view",
      "type": "function"
    },
    {
      "constant": true,
      "inputs": [],
      "name": "dev_hash_part2",
      "outputs": [
        {
          "internalType": "bytes32",
          "name": "",
          "type": "bytes32"
        }
      ],
      "payable": false,
      "stateMutability": "view",
      "type": "function"
    },
    {
      "constant": true,
      "inputs": [],
      "name": "propertyOwner",
      "outputs": [
        {
          "internalType": "bytes32",
          "name": "",
          "type": "bytes32"
        }
      ],
      "payable": false,
      "stateMutability": "view",
      "type": "function"
    },
    {
      "constant": true,
      "inputs": [],
      "name": "riskIndex",
      "outputs": [
        {
          "internalType": "uint64",
          "name": "",
          "type": "uint64"
        }
      ],
      "payable": false,
      "stateMutability": "view",
      "type": "function"
    },
    {
      "constant": false,
      "inputs": [
        {
          "internalType": "uint64",
          "name": "risk",
          "type": "uint64"
        },
        {
          "internalType": "bytes32",
          "name": "hashP1",
          "type": "bytes32"
        },
        {
          "internalType": "bytes32",
          "name": "hashP2",
          "type": "bytes32"
        },
        {
          "internalType": "bytes32",
          "name": "dHashP1",
          "type": "bytes32"
        },
        {
          "internalType": "bytes32",
          "name": "dHashP2",
          "type": "bytes32"
        },
        {
          "internalType": "bytes32",
          "name": "Owner",
          "type": "bytes32"
        }
      ],
      "name": "setData",
      "outputs": [],
      "payable": false,
      "stateMutability": "nonpayable",
      "type": "function"
    },
    {
      "constant": false,
      "inputs": [
        {
          "internalType": "bool",
          "name": "consType",
          "type": "bool"
        },
        {
          "internalType": "bool",
          "name": "fType",
          "type": "bool"
        },
        {
          "internalType": "uint16",
          "name": "yOfConst",
          "type": "uint16"
        }
      ],
      "name": "setExtra",
      "outputs": [],
      "payable": false,
      "stateMutability": "nonpayable",
      "type": "function"
    },
    {
      "constant": false,
      "inputs": [
        {
          "internalType": "bytes32",
          "name": "db_h1",
          "type": "bytes32"
        },
        {
          "internalType": "bytes32",
          "name": "db_h2",
          "type": "bytes32"
        },
        {
          "internalType": "bytes32",
          "name": "dev_h1",
          "type": "bytes32"
        },
        {
          "internalType": "bytes32",
          "name": "dev_h2",
          "type": "bytes32"
        }
      ],
      "name": "validateHashes",
      "outputs": [
        {
          "internalType": "bool",
          "name": "",
          "type": "bool"
        }
      ],
      "payable": false,
      "stateMutability": "nonpayable",
      "type": "function"
    },
    {
      "constant": false,
      "inputs": [
        {
          "internalType": "int256",
          "name": "data",
          "type": "int256"
        }
      ],
      "name": "retrieveData",
      "outputs": [
        {
          "internalType": "bytes32",
          "name": "",
          "type": "bytes32"
        }
      ],
      "payable": false,
      "stateMutability": "nonpayable",
      "type": "function"
    }
  ],
  "bytecode": "0x608060405234801561001057600080fd5b5061045f806100206000396000f3fe608060405234801561001057600080fd5b506004361061009e5760003560e01c8063b5ab0e4111610066578063b5ab0e41146101bd578063bccede4d146101db578063e0371bed146101f9578063e08c2c7214610243578063f446c38f146102a75761009e565b8063206ba8b9146100a357806334883b77146100e55780637ddc8f541461014f578063a42629db1461016d578063a5aa5d1a1461019f575b600080fd5b6100cf600480360360208110156100b957600080fd5b81019080803590602001909291905050506102c5565b6040518082815260200191505060405180910390f35b61014d600480360360c08110156100fb57600080fd5b81019080803567ffffffffffffffff169060200190929190803590602001909291908035906020019092919080359060200190929190803590602001909291908035906020019092919050505061031f565b005b610157610372565b6040518082815260200191505060405180910390f35b610175610378565b604051808267ffffffffffffffff1667ffffffffffffffff16815260200191505060405180910390f35b6101a7610391565b6040518082815260200191505060405180910390f35b6101c5610397565b6040518082815260200191505060405180910390f35b6101e361039d565b6040518082815260200191505060405180910390f35b6102416004803603606081101561020f57600080fd5b81019080803515159060200190929190803515159060200190929190803561ffff1690602001909291905050506103a3565b005b61028d6004803603608081101561025957600080fd5b81019080803590602001909291908035906020019092919080359060200190929190803590602001909291905050506103f9565b604051808215151515815260200191505060405180910390f35b6102af610424565b6040518082815260200191505060405180910390f35b600060018214156102da57600154905061031a565b60028214156102ed57600254905061031a565b600382141561030057600354905061031a565b600482141561031357600454905061031a565b6000801b90505b919050565b856000806101000a81548167ffffffffffffffff021916908367ffffffffffffffff1602179055508460018190555083600281905550826003819055508160048190555080600581905550505050505050565b60025481565b6000809054906101000a900467ffffffffffffffff1681565b60045481565b60015481565b60035481565b82600660006101000a81548160ff02191690831515021790555081600660016101000a81548160ff02191690831515021790555080600660026101000a81548161ffff021916908361ffff160217905550505050565b6000828514801561040957508184145b15610417576001905061041c565b600090505b949350505050565b6005548156fea265627a7a7231582017b9a8e24a7d4d3aede366302510c6ad9c5e750bd62f505764514950950290ec64736f6c63430005100032",
  "source": "pragma solidity ^0.5.9;\n\ncontract storeData {\n    // Calculated risk index\n    uint64 public riskIndex;\n    // Sha256 root hash of data stored in offchain database\n    bytes32 public db_hash_part1;\n    bytes32 public db_hash_part2;\n    //Device sha256 root hash\n    bytes32 public dev_hash_part1;\n    bytes32 public dev_hash_part2;\n    //Name of the propertyOwner\n    bytes32 public propertyOwner;\n    \n    //We can also add housing data on top of the rest of the data\n    /*Extra:type of construction: Apartment Building / Detached house\n     *If constrType == 1 it's Apartment else it's Detached house\n    */\n    bool constrType;\n    /*Extra:type of foundation: cushioning / general type \n     *If foType == 1 it's cushioning type else it's general type \n    */\n    bool foType;\n    //Extra: Year of construction\n    uint16 yearOfConstruction; \n    \n    \n    function setData(uint64  risk, bytes32  hashP1, bytes32 hashP2, bytes32 dHashP1, bytes32 dHashP2, bytes32 Owner) public {\n        riskIndex = risk;\n        db_hash_part1 = hashP1;\n        db_hash_part2 = hashP2;\n\t\tdev_hash_part1 = dHashP1;\n\t\tdev_hash_part2 = dHashP2;\n\t\tpropertyOwner = Owner;\n    }\n\n    function setExtra (bool consType, bool fType, uint16 yOfConst) public {\n\t\tconstrType = consType;\n\t\tfoType = fType;\n        yearOfConstruction = yOfConst;\n    }\n\t\n    function validateHashes(bytes32 db_h1,bytes32 db_h2,bytes32 dev_h1,bytes32 dev_h2) public returns (bool){\n\tif ((db_h1 == dev_h1) && (db_h2 == dev_h2)) {\n\t    return true;\n\t}\n\telse {\n\t    return false;\n\t}\n\t}\n\t\n\tfunction retrieveData (int data) public returns (bytes32){\n\t    if (data == 1) {\n\t        return db_hash_part1;\n\t    }\n\t    else if (data == 2){\n\t        return db_hash_part2;\n\t    }\n\t    else if (data == 3){\n\t        return dev_hash_part1;\n\t    }\n\t    else if (data == 4){\n\t        return dev_hash_part2;\n\t    }\n\t    else {\n\t        return 0;\n\t    }\n\t}\n}\n",
  "sourcePath": "/home/alex/Dropbox/DOD 19 Paper/contract_dir/contracts/contract.sol",
  "compiler": {
    "name": "solc",
    "version": "0.5.16+commit.9c3226ce.Emscripten.clang"
  },
  "schemaVersion": "3.0.23",
  "updatedAt": "2020-04-15T15:36:53.569Z",
  "networkType": "ethereum",
  "devdoc": {
    "methods": {}
  },
  "userdoc": {
    "methods": {}
  }
}